{
  "contractName": "Soligram",
  "abi": [
    {
      "constant": true,
      "inputs": [],
      "name": "userCount",
      "outputs": [
        {
          "name": "",
          "type": "uint256"
        }
      ],
      "payable": false,
      "stateMutability": "view",
      "type": "function",
      "signature": "0x07973ccf"
    },
    {
      "constant": true,
      "inputs": [
        {
          "name": "",
          "type": "uint256"
        }
      ],
      "name": "users",
      "outputs": [
        {
          "name": "balance",
          "type": "uint256"
        },
        {
          "name": "userNumber",
          "type": "uint256"
        },
        {
          "name": "userName",
          "type": "string"
        },
        {
          "name": "mainAccount",
          "type": "address"
        }
      ],
      "payable": false,
      "stateMutability": "view",
      "type": "function",
      "signature": "0x365b98b2"
    },
    {
      "constant": true,
      "inputs": [
        {
          "name": "",
          "type": "uint256"
        }
      ],
      "name": "images",
      "outputs": [
        {
          "name": "imageNumber",
          "type": "uint256"
        },
        {
          "name": "userName",
          "type": "string"
        },
        {
          "name": "imageHash",
          "type": "string"
        },
        {
          "name": "caption",
          "type": "string"
        },
        {
          "name": "buyingPrice",
          "type": "uint256"
        },
        {
          "name": "userNumber",
          "type": "uint256"
        }
      ],
      "payable": false,
      "stateMutability": "view",
      "type": "function",
      "signature": "0x84856482"
    },
    {
      "constant": true,
      "inputs": [],
      "name": "imageCount",
      "outputs": [
        {
          "name": "",
          "type": "uint256"
        }
      ],
      "payable": false,
      "stateMutability": "view",
      "type": "function",
      "signature": "0x92053b63"
    },
    {
      "constant": false,
      "inputs": [
        {
          "name": "_price",
          "type": "uint256"
        },
        {
          "name": "_caption",
          "type": "string"
        },
        {
          "name": "_imageHash",
          "type": "string"
        },
        {
          "name": "_mainAccount",
          "type": "address"
        },
        {
          "name": "_userName",
          "type": "string"
        }
      ],
      "name": "createNew",
      "outputs": [],
      "payable": true,
      "stateMutability": "payable",
      "type": "function",
      "signature": "0x835801b9"
    },
    {
      "constant": false,
      "inputs": [
        {
          "name": "_imageNumber",
          "type": "uint256"
        },
        {
          "name": "_buyingPrice",
          "type": "uint256"
        },
        {
          "name": "_userName",
          "type": "string"
        },
        {
          "name": "_userNumber",
          "type": "uint256"
        },
        {
          "name": "_mainAccount",
          "type": "address"
        }
      ],
      "name": "buyPost",
      "outputs": [],
      "payable": true,
      "stateMutability": "payable",
      "type": "function",
      "signature": "0xa421a1b9"
    },
    {
      "constant": false,
      "inputs": [
        {
          "name": "_amount",
          "type": "uint256"
        },
        {
          "name": "_userNumber",
          "type": "uint256"
        }
      ],
      "name": "redeemAmount",
      "outputs": [],
      "payable": true,
      "stateMutability": "payable",
      "type": "function",
      "signature": "0x3ee012ea"
    }
  ],
  "bytecode": "0x608060405260008055600060015534801561001957600080fd5b5061113f806100296000396000f3fe608060405260043610610083576000357c0100000000000000000000000000000000000000000000000000000000900463ffffffff16806307973ccf14610088578063365b98b2146100b35780633ee012ea146101a8578063835801b9146101e057806384856482146103f357806392053b6314610594578063a421a1b9146105bf575b600080fd5b34801561009457600080fd5b5061009d6106b8565b6040518082815260200191505060405180910390f35b3480156100bf57600080fd5b506100ec600480360360208110156100d657600080fd5b81019080803590602001909291905050506106be565b60405180858152602001848152602001806020018373ffffffffffffffffffffffffffffffffffffffff1673ffffffffffffffffffffffffffffffffffffffff168152602001828103825284818151815260200191508051906020019080838360005b8381101561016a57808201518184015260208101905061014f565b50505050905090810190601f1680156101975780820380516001836020036101000a031916815260200191505b509550505050505060405180910390f35b6101de600480360360408110156101be57600080fd5b8101908080359060200190929190803590602001909291905050506107a6565b005b6103f1600480360360a08110156101f657600080fd5b81019080803590602001909291908035906020019064010000000081111561021d57600080fd5b82018360208201111561022f57600080fd5b8035906020019184600183028401116401000000008311171561025157600080fd5b91908080601f016020809104026020016040519081016040528093929190818152602001838380828437600081840152601f19601f820116905080830192505050505050509192919290803590602001906401000000008111156102b457600080fd5b8201836020820111156102c657600080fd5b803590602001918460018302840111640100000000831117156102e857600080fd5b91908080601f016020809104026020016040519081016040528093929190818152602001838380828437600081840152601f19601f820116905080830192505050505050509192919290803573ffffffffffffffffffffffffffffffffffffffff1690602001909291908035906020019064010000000081111561036b57600080fd5b82018360208201111561037d57600080fd5b8035906020019184600183028401116401000000008311171561039f57600080fd5b91908080601f016020809104026020016040519081016040528093929190818152602001838380828437600081840152601f19601f82011690508083019250505050505050919291929050505061085e565b005b3480156103ff57600080fd5b5061042c6004803603602081101561041657600080fd5b8101908080359060200190929190505050610b58565b60405180878152602001806020018060200180602001868152602001858152602001848103845289818151815260200191508051906020019080838360005b8381101561048657808201518184015260208101905061046b565b50505050905090810190601f1680156104b35780820380516001836020036101000a031916815260200191505b50848103835288818151815260200191508051906020019080838360005b838110156104ec5780820151818401526020810190506104d1565b50505050905090810190601f1680156105195780820380516001836020036101000a031916815260200191505b50848103825287818151815260200191508051906020019080838360005b83811015610552578082015181840152602081019050610537565b50505050905090810190601f16801561057f5780820380516001836020036101000a031916815260200191505b50995050505050505050505060405180910390f35b3480156105a057600080fd5b506105a9610d5c565b6040518082815260200191505060405180910390f35b6106b6600480360360a08110156105d557600080fd5b8101908080359060200190929190803590602001909291908035906020019064010000000081111561060657600080fd5b82018360208201111561061857600080fd5b8035906020019184600183028401116401000000008311171561063a57600080fd5b91908080601f016020809104026020016040519081016040528093929190818152602001838380828437600081840152601f19601f82011690508083019250505050505050919291929080359060200190929190803573ffffffffffffffffffffffffffffffffffffffff169060200190929190505050610d62565b005b60015481565b6003602052806000526040600020600091509050806000015490806001015490806002018054600181600116156101000203166002900480601f0160208091040260200160405190810160405280929190818152602001828054600181600116156101000203166002900480156107765780601f1061074b57610100808354040283529160200191610776565b820191906000526020600020905b81548152906001019060200180831161075957829003601f168201915b5050505050908060030160009054906101000a900473ffffffffffffffffffffffffffffffffffffffff16905084565b670de0b6b3a7640000828115156107b957fe5b0460036000838152602001908152602001600020600001600082825403925050819055506003600082815260200190815260200160002060030160009054906101000a900473ffffffffffffffffffffffffffffffffffffffff1673ffffffffffffffffffffffffffffffffffffffff166108fc839081150290604051600060405180830381858888f19350505050158015610859573d6000803e3d6000fd5b505050565b600080905060008090506000600190505b60015481101561099757836040516020018082805190602001908083835b6020831015156108b2578051825260208201915060208101905060208303925061088d565b6001836020036101000a038019825116818451168082178552505050505050905001915050604051602081830303815290604052805190602001206003600083815260200190815260200160002060020160405160200180828054600181600116156101000203166002900480156109615780601f1061093f576101008083540402835291820191610961565b820191906000526020600020905b81548152906001019060200180831161094d575b505091505060405160208183030381529060405280519060200120141561098a57600192508091505b808060010191505061086f565b506000821415610a82576001600081548092919060010191905055506001549050608060405190810160405280600081526020018281526020018481526020018573ffffffffffffffffffffffffffffffffffffffff1681525060036000600154815260200190815260200160002060008201518160000155602082015181600101556040820151816002019080519060200190610a36929190610fee565b5060608201518160030160006101000a81548173ffffffffffffffffffffffffffffffffffffffff021916908373ffffffffffffffffffffffffffffffffffffffff1602179055509050505b600080815480929190600101919050555060c0604051908101604052806000548152602001848152602001868152602001878152602001888152602001828152506002600080548152602001908152602001600020600082015181600001556020820151816001019080519060200190610afd929190610fee565b506040820151816002019080519060200190610b1a929190610fee565b506060820151816003019080519060200190610b37929190610fee565b506080820151816004015560a0820151816005015590505050505050505050565b6002602052806000526040600020600091509050806000015490806001018054600181600116156101000203166002900480601f016020809104026020016040519081016040528092919081815260200182805460018160011615610100020316600290048015610c0a5780601f10610bdf57610100808354040283529160200191610c0a565b820191906000526020600020905b815481529060010190602001808311610bed57829003601f168201915b505050505090806002018054600181600116156101000203166002900480601f016020809104026020016040519081016040528092919081815260200182805460018160011615610100020316600290048015610ca85780601f10610c7d57610100808354040283529160200191610ca8565b820191906000526020600020905b815481529060010190602001808311610c8b57829003601f168201915b505050505090806003018054600181600116156101000203166002900480601f016020809104026020016040519081016040528092919081815260200182805460018160011615610100020316600290048015610d465780601f10610d1b57610100808354040283529160200191610d46565b820191906000526020600020905b815481529060010190602001808311610d2957829003601f168201915b5050505050908060040154908060050154905086565b60005481565b82600260008781526020019081526020016000206001019080519060200190610d8c92919061106e565b50670de0b6b3a764000084811515610da057fe5b046003600084815260200190815260200160002060000160008282540192505081905550600080905060008090506000600190505b600154811015610efa57856040516020018082805190602001908083835b602083101515610e185780518252602082019150602081019050602083039250610df3565b6001836020036101000a03801982511681845116808217855250505050505090500191505060405160208183030381529060405280519060200120600360008381526020019081526020016000206002016040516020018082805460018160011615610100020316600290048015610ec75780601f10610ea5576101008083540402835291820191610ec7565b820191906000526020600020905b815481529060010190602001808311610eb3575b5050915050604051602081830303815290604052805190602001201415610eed57600192505b8080600101915050610dd5565b506000821415610fe5576001600081548092919060010191905055506001549050608060405190810160405280600081526020018281526020018681526020018473ffffffffffffffffffffffffffffffffffffffff1681525060036000600154815260200190815260200160002060008201518160000155602082015181600101556040820151816002019080519060200190610f99929190610fee565b5060608201518160030160006101000a81548173ffffffffffffffffffffffffffffffffffffffff021916908373ffffffffffffffffffffffffffffffffffffffff1602179055509050505b50505050505050565b828054600181600116156101000203166002900490600052602060002090601f016020900481019282601f1061102f57805160ff191683800117855561105d565b8280016001018555821561105d579182015b8281111561105c578251825591602001919060010190611041565b5b50905061106a91906110ee565b5090565b828054600181600116156101000203166002900490600052602060002090601f016020900481019282601f106110af57805160ff19168380011785556110dd565b828001600101855582156110dd579182015b828111156110dc5782518255916020019190600101906110c1565b5b5090506110ea91906110ee565b5090565b61111091905b8082111561110c5760008160009055506001016110f4565b5090565b9056fea165627a7a723058202b14ad862f03c0c4f3edc7b4c06821f38b04b504e3244de844d887de4364c4640029",
  "source": "// SPDX-License-Identifier: MIT\npragma solidity >=0.4.21 <0.7.0;\n\ncontract Soligram {\n \nuint public imageCount=0;\nuint public userCount=0;\n\nstruct Image{\n    uint imageNumber;\n    string userName;\n    string imageHash;\n    string caption;\n    uint buyingPrice;\n    uint userNumber;\n}\n\nstruct User{\n    uint balance;\n    uint userNumber;\n    string userName;\n    address payable mainAccount;\n}\n\nmapping(uint=>Image)public images;\nmapping(uint=>User)public users;\n\n\nfunction createNew  (uint _price,string memory _caption,string memory _imageHash,\naddress payable _mainAccount,string memory _userName) public payable{\n\n uint check=0;\n uint _userNumber=0;\n for(uint i=1;i<userCount;i++){\n     if(keccak256(abi.encodePacked(users[i].userName)) ==keccak256(abi.encodePacked(_userName))){\n       check=1;\n       _userNumber=i;\n     }\n }\n if(check ==0){\n     userCount++;\n     _userNumber=userCount;\n     users[userCount]=User(0,_userNumber,_userName,_mainAccount);\n }\n\n imageCount++;\n images[imageCount]=Image(imageCount,_userName,_imageHash,_caption,_price,_userNumber);\n \n} \n\nfunction buyPost (uint _imageNumber,uint _buyingPrice,string memory _userName,uint _userNumber,address payable _mainAccount)\n public payable{\n images[_imageNumber].userName=_userName;\n users[_userNumber].balance+=_buyingPrice/1000000000000000000;\n\n uint check=0;\n uint _userNumber=0;\n \n  for(uint i=1;i<userCount;i++){\n     if(keccak256(abi.encodePacked(users[i].userName)) ==keccak256(abi.encodePacked(_userName))){\n       check=1;\n    //    _userNumber=i;\n     }\n }\n if(check ==0){\n     userCount++;\n     _userNumber=userCount;\n     users[userCount]=User(0,_userNumber,_userName,_mainAccount);\n }\n\n\n}\n\nfunction redeemAmount(uint _amount,uint _userNumber) public payable{\n  users[_userNumber].balance-=_amount/1000000000000000000;\n  users[_userNumber].mainAccount.transfer(_amount);\n}\n\n}",
  "sourcePath": "/home/deucaleon19/Documents/projects/SOLIGRAM/contracts/Soligram.sol",
  "compiler": {
    "name": "solc",
    "version": "0.5.0+commit.1d4f565a.Emscripten.clang"
  },
  "schemaVersion": "3.0.1",
  "updatedAt": "2021-11-13T14:26:36.406Z",
  "devdoc": {
    "methods": {}
  },
  "userdoc": {
    "methods": {}
  }
}