{
  "contractName": "Soligram",
  "abi": [
    {
      "constant": true,
      "inputs": [],
      "name": "userCount",
      "outputs": [
        {
          "name": "",
          "type": "uint256"
        }
      ],
      "payable": false,
      "stateMutability": "view",
      "type": "function",
      "signature": "0x07973ccf"
    },
    {
      "constant": true,
      "inputs": [
        {
          "name": "",
          "type": "uint256"
        }
      ],
      "name": "users",
      "outputs": [
        {
          "name": "balance",
          "type": "uint256"
        },
        {
          "name": "userNumber",
          "type": "uint256"
        },
        {
          "name": "userName",
          "type": "string"
        },
        {
          "name": "mainAccount",
          "type": "address"
        }
      ],
      "payable": false,
      "stateMutability": "view",
      "type": "function",
      "signature": "0x365b98b2"
    },
    {
      "constant": true,
      "inputs": [
        {
          "name": "",
          "type": "uint256"
        }
      ],
      "name": "images",
      "outputs": [
        {
          "name": "imageNumber",
          "type": "uint256"
        },
        {
          "name": "userName",
          "type": "string"
        },
        {
          "name": "imageHash",
          "type": "string"
        },
        {
          "name": "caption",
          "type": "string"
        },
        {
          "name": "buyingPrice",
          "type": "uint256"
        },
        {
          "name": "userNumber",
          "type": "uint256"
        }
      ],
      "payable": false,
      "stateMutability": "view",
      "type": "function",
      "signature": "0x84856482"
    },
    {
      "constant": true,
      "inputs": [],
      "name": "imageCount",
      "outputs": [
        {
          "name": "",
          "type": "uint256"
        }
      ],
      "payable": false,
      "stateMutability": "view",
      "type": "function",
      "signature": "0x92053b63"
    },
    {
      "constant": false,
      "inputs": [
        {
          "name": "_price",
          "type": "uint256"
        },
        {
          "name": "_caption",
          "type": "string"
        },
        {
          "name": "_imageHash",
          "type": "string"
        },
        {
          "name": "_mainAccount",
          "type": "address"
        },
        {
          "name": "_userName",
          "type": "string"
        }
      ],
      "name": "createNew",
      "outputs": [],
      "payable": true,
      "stateMutability": "payable",
      "type": "function",
      "signature": "0x835801b9"
    },
    {
      "constant": false,
      "inputs": [
        {
          "name": "_mainAccount",
          "type": "address"
        },
        {
          "name": "_userName",
          "type": "string"
        }
      ],
      "name": "createNewUser",
      "outputs": [],
      "payable": true,
      "stateMutability": "payable",
      "type": "function",
      "signature": "0xb919ce1e"
    },
    {
      "constant": false,
      "inputs": [
        {
          "name": "_imageNumber",
          "type": "uint256"
        },
        {
          "name": "_buyingPrice",
          "type": "uint256"
        },
        {
          "name": "_userName",
          "type": "string"
        },
        {
          "name": "_userNumber",
          "type": "uint256"
        },
        {
          "name": "_mainAccount",
          "type": "address"
        }
      ],
      "name": "buyPost",
      "outputs": [],
      "payable": true,
      "stateMutability": "payable",
      "type": "function",
      "signature": "0xa421a1b9"
    },
    {
      "constant": false,
      "inputs": [
        {
          "name": "_amount",
          "type": "uint256"
        },
        {
          "name": "_userNumber",
          "type": "uint256"
        }
      ],
      "name": "redeemAmount",
      "outputs": [],
      "payable": true,
      "stateMutability": "payable",
      "type": "function",
      "signature": "0x3ee012ea"
    }
  ],
  "bytecode": "0x608060405260008055600060015534801561001957600080fd5b50610fec806100296000396000f3fe60806040526004361061008e576000357c0100000000000000000000000000000000000000000000000000000000900463ffffffff16806307973ccf14610093578063365b98b2146100be5780633ee012ea146101b3578063835801b9146101eb57806384856482146103fe57806392053b631461059f578063a421a1b9146105ca578063b919ce1e146106c3575b600080fd5b34801561009f57600080fd5b506100a861079e565b6040518082815260200191505060405180910390f35b3480156100ca57600080fd5b506100f7600480360360208110156100e157600080fd5b81019080803590602001909291905050506107a4565b60405180858152602001848152602001806020018373ffffffffffffffffffffffffffffffffffffffff1673ffffffffffffffffffffffffffffffffffffffff168152602001828103825284818151815260200191508051906020019080838360005b8381101561017557808201518184015260208101905061015a565b50505050905090810190601f1680156101a25780820380516001836020036101000a031916815260200191505b509550505050505060405180910390f35b6101e9600480360360408110156101c957600080fd5b81019080803590602001909291908035906020019092919050505061088c565b005b6103fc600480360360a081101561020157600080fd5b81019080803590602001909291908035906020019064010000000081111561022857600080fd5b82018360208201111561023a57600080fd5b8035906020019184600183028401116401000000008311171561025c57600080fd5b91908080601f016020809104026020016040519081016040528093929190818152602001838380828437600081840152601f19601f820116905080830192505050505050509192919290803590602001906401000000008111156102bf57600080fd5b8201836020820111156102d157600080fd5b803590602001918460018302840111640100000000831117156102f357600080fd5b91908080601f016020809104026020016040519081016040528093929190818152602001838380828437600081840152601f19601f820116905080830192505050505050509192919290803573ffffffffffffffffffffffffffffffffffffffff1690602001909291908035906020019064010000000081111561037657600080fd5b82018360208201111561038857600080fd5b803590602001918460018302840111640100000000831117156103aa57600080fd5b91908080601f016020809104026020016040519081016040528093929190818152602001838380828437600081840152601f19601f820116905080830192505050505050509192919290505050610944565b005b34801561040a57600080fd5b506104376004803603602081101561042157600080fd5b8101908080359060200190929190505050610b47565b60405180878152602001806020018060200180602001868152602001858152602001848103845289818151815260200191508051906020019080838360005b83811015610491578082015181840152602081019050610476565b50505050905090810190601f1680156104be5780820380516001836020036101000a031916815260200191505b50848103835288818151815260200191508051906020019080838360005b838110156104f75780820151818401526020810190506104dc565b50505050905090810190601f1680156105245780820380516001836020036101000a031916815260200191505b50848103825287818151815260200191508051906020019080838360005b8381101561055d578082015181840152602081019050610542565b50505050905090810190601f16801561058a5780820380516001836020036101000a031916815260200191505b50995050505050505050505060405180910390f35b3480156105ab57600080fd5b506105b4610d4b565b6040518082815260200191505060405180910390f35b6106c1600480360360a08110156105e057600080fd5b8101908080359060200190929190803590602001909291908035906020019064010000000081111561061157600080fd5b82018360208201111561062357600080fd5b8035906020019184600183028401116401000000008311171561064557600080fd5b91908080601f016020809104026020016040519081016040528093929190818152602001838380828437600081840152601f19601f82011690508083019250505050505050919291929080359060200190929190803573ffffffffffffffffffffffffffffffffffffffff169060200190929190505050610d51565b005b61079c600480360360408110156106d957600080fd5b81019080803573ffffffffffffffffffffffffffffffffffffffff1690602001909291908035906020019064010000000081111561071657600080fd5b82018360208201111561072857600080fd5b8035906020019184600183028401116401000000008311171561074a57600080fd5b91908080601f016020809104026020016040519081016040528093929190818152602001838380828437600081840152601f19601f820116905080830192505050505050509192919290505050610dba565b005b60015481565b6003602052806000526040600020600091509050806000015490806001015490806002018054600181600116156101000203166002900480601f01602080910402602001604051908101604052809291908181526020018280546001816001161561010002031660029004801561085c5780601f106108315761010080835404028352916020019161085c565b820191906000526020600020905b81548152906001019060200180831161083f57829003601f168201915b5050505050908060030160009054906101000a900473ffffffffffffffffffffffffffffffffffffffff16905084565b670de0b6b3a76400008281151561089f57fe5b0460036000838152602001908152602001600020600001600082825403925050819055506003600082815260200190815260200160002060030160009054906101000a900473ffffffffffffffffffffffffffffffffffffffff1673ffffffffffffffffffffffffffffffffffffffff166108fc839081150290604051600060405180830381858888f1935050505015801561093f573d6000803e3d6000fd5b505050565b600080600190505b60015481111515610a7157826040516020018082805190602001908083835b602083101515610990578051825260208201915060208101905060208303925061096b565b6001836020036101000a03801982511681845116808217855250505050505090500191505060405160208183030381529060405280519060200120600360008381526020019081526020016000206002016040516020018082805460018160011615610100020316600290048015610a3f5780601f10610a1d576101008083540402835291820191610a3f565b820191906000526020600020905b815481529060010190602001808311610a2b575b5050915050604051602081830303815290604052805190602001201415610a64578091505b808060010191505061094c565b50600080815480929190600101919050555060c0604051908101604052806000548152602001838152602001858152602001868152602001878152602001828152506002600080548152602001908152602001600020600082015181600001556020820151816001019080519060200190610aed929190610e9b565b506040820151816002019080519060200190610b0a929190610e9b565b506060820151816003019080519060200190610b27929190610e9b565b506080820151816004015560a08201518160050155905050505050505050565b6002602052806000526040600020600091509050806000015490806001018054600181600116156101000203166002900480601f016020809104026020016040519081016040528092919081815260200182805460018160011615610100020316600290048015610bf95780601f10610bce57610100808354040283529160200191610bf9565b820191906000526020600020905b815481529060010190602001808311610bdc57829003601f168201915b505050505090806002018054600181600116156101000203166002900480601f016020809104026020016040519081016040528092919081815260200182805460018160011615610100020316600290048015610c975780601f10610c6c57610100808354040283529160200191610c97565b820191906000526020600020905b815481529060010190602001808311610c7a57829003601f168201915b505050505090806003018054600181600116156101000203166002900480601f016020809104026020016040519081016040528092919081815260200182805460018160011615610100020316600290048015610d355780601f10610d0a57610100808354040283529160200191610d35565b820191906000526020600020905b815481529060010190602001808311610d1857829003601f168201915b5050505050908060040154908060050154905086565b60005481565b82600260008781526020019081526020016000206001019080519060200190610d7b929190610f1b565b50670de0b6b3a764000084811515610d8f57fe5b0460036000848152602001908152602001600020600001600082825401925050819055505050505050565b6001600081548092919060010191905055506080604051908101604052806000815260200160015481526020018281526020018373ffffffffffffffffffffffffffffffffffffffff1681525060036000600154815260200190815260200160002060008201518160000155602082015181600101556040820151816002019080519060200190610e4c929190610e9b565b5060608201518160030160006101000a81548173ffffffffffffffffffffffffffffffffffffffff021916908373ffffffffffffffffffffffffffffffffffffffff1602179055509050505050565b828054600181600116156101000203166002900490600052602060002090601f016020900481019282601f10610edc57805160ff1916838001178555610f0a565b82800160010185558215610f0a579182015b82811115610f09578251825591602001919060010190610eee565b5b509050610f179190610f9b565b5090565b828054600181600116156101000203166002900490600052602060002090601f016020900481019282601f10610f5c57805160ff1916838001178555610f8a565b82800160010185558215610f8a579182015b82811115610f89578251825591602001919060010190610f6e565b5b509050610f979190610f9b565b5090565b610fbd91905b80821115610fb9576000816000905550600101610fa1565b5090565b9056fea165627a7a723058200877a0d763e67f8b0a51f040dc2344c7187815bd6f0ec1e8332a30b038ec92330029",
  "source": "// SPDX-License-Identifier: MIT\npragma solidity >=0.4.21 <0.7.0;\n\ncontract Soligram {\n \nuint public imageCount=0;\nuint public userCount=0;\n\nstruct Image{\n    uint imageNumber;\n    string userName;\n    string imageHash;\n    string caption;\n    uint buyingPrice;\n    uint userNumber;\n}\n\nstruct User{\n    uint balance;\n    uint userNumber;\n    string userName;\n    address payable mainAccount;\n}\n\nmapping(uint=>Image)public images;\nmapping(uint=>User)public users;\n\n\nfunction createNew  (uint _price,string memory _caption,string memory _imageHash,\naddress payable _mainAccount,string memory _userName) public payable{\n\n uint _userNumber;\n for(uint i=1;i<=userCount;i++){\n     if(keccak256(abi.encodePacked(users[i].userName)) ==keccak256(abi.encodePacked(_userName))){\n       \n       _userNumber=i;\n     }\n }\n\n imageCount++;\n images[imageCount]=Image(imageCount,_userName,_imageHash,_caption,_price,_userNumber);\n \n} \n\n\nfunction createNewUser(address payable _mainAccount, string memory _userName)public payable{\n \n userCount++;\n users[userCount]=User(0,userCount,_userName,_mainAccount);\n\n\n//  uint check=0;\n//  uint _userNumber=0;\n//  for(uint i=1;i<userCount;i++){\n//      if(keccak256(abi.encodePacked(users[i].userName)) ==keccak256(abi.encodePacked(_userName))){\n//        check=1;\n//        _userNumber=i;\n//      }\n//  }\n//  if(check ==0){\n//      userCount++;\n//      _userNumber=userCount;\n     \n//  }\n}\n\n\nfunction buyPost (uint _imageNumber,uint _buyingPrice,string memory _userName,uint _userNumber,address payable _mainAccount)\n public payable{\n images[_imageNumber].userName=_userName;\n users[_userNumber].balance+=_buyingPrice/1000000000000000000;\n}\n\n\nfunction redeemAmount(uint _amount,uint _userNumber) public payable{\n  users[_userNumber].balance-=_amount/1000000000000000000;\n  users[_userNumber].mainAccount.transfer(_amount);\n  \n}\n\n}",
  "sourcePath": "/home/deucaleon19/Documents/projects/SOLIGRAM/contracts/Soligram.sol",
  "compiler": {
    "name": "solc",
    "version": "0.5.0+commit.1d4f565a.Emscripten.clang"
  },
  "schemaVersion": "3.0.1",
  "updatedAt": "2021-11-14T03:00:00.888Z",
  "devdoc": {
    "methods": {}
  },
  "userdoc": {
    "methods": {}
  }
}