{
  "contractName": "Soligram",
  "abi": [
    {
      "constant": true,
      "inputs": [],
      "name": "imageCount",
      "outputs": [
        {
          "name": "",
          "type": "uint256"
        }
      ],
      "payable": false,
      "stateMutability": "view",
      "type": "function",
      "signature": "0x92053b63"
    },
    {
      "constant": false,
      "inputs": [
        {
          "name": "_caption",
          "type": "string"
        },
        {
          "name": "_name",
          "type": "string"
        },
        {
          "name": "_imageHash",
          "type": "string"
        },
        {
          "name": "_mainAccount",
          "type": "address"
        }
      ],
      "name": "createNew",
      "outputs": [],
      "payable": true,
      "stateMutability": "payable",
      "type": "function",
      "signature": "0xc69c7f00"
    },
    {
      "constant": false,
      "inputs": [
        {
          "name": "_imageNumber",
          "type": "uint256"
        },
        {
          "name": "_donatedAmount",
          "type": "uint256"
        }
      ],
      "name": "addDonation",
      "outputs": [],
      "payable": true,
      "stateMutability": "payable",
      "type": "function",
      "signature": "0xd87ffb70"
    }
  ],
  "bytecode": "0x60806040526000805534801561001457600080fd5b506104ee806100246000396000f3fe608060405260043610610057576000357c0100000000000000000000000000000000000000000000000000000000900463ffffffff16806392053b631461005c578063c69c7f0014610087578063d87ffb7014610290575b600080fd5b34801561006857600080fd5b506100716102c8565b6040518082815260200191505060405180910390f35b61028e6004803603608081101561009d57600080fd5b81019080803590602001906401000000008111156100ba57600080fd5b8201836020820111156100cc57600080fd5b803590602001918460018302840111640100000000831117156100ee57600080fd5b91908080601f016020809104026020016040519081016040528093929190818152602001838380828437600081840152601f19601f8201169050808301925050505050505091929192908035906020019064010000000081111561015157600080fd5b82018360208201111561016357600080fd5b8035906020019184600183028401116401000000008311171561018557600080fd5b91908080601f016020809104026020016040519081016040528093929190818152602001838380828437600081840152601f19601f820116905080830192505050505050509192919290803590602001906401000000008111156101e857600080fd5b8201836020820111156101fa57600080fd5b8035906020019184600183028401116401000000008311171561021c57600080fd5b91908080601f016020809104026020016040519081016040528093929190818152602001838380828437600081840152601f19601f820116905080830192505050505050509192919290803573ffffffffffffffffffffffffffffffffffffffff1690602001909291905050506102ce565b005b6102c6600480360360408110156102a657600080fd5b8101908080359060200190929190803590602001909291905050506103f5565b005b60005481565b600080815480929190600101919050555060c0604051908101604052806000548152602001848152602001838152602001858152602001600081526020018273ffffffffffffffffffffffffffffffffffffffff16815250600160008054815260200190815260200160002060008201518160000155602082015181600101908051906020019061036092919061041d565b50604082015181600201908051906020019061037d92919061041d565b50606082015181600301908051906020019061039a92919061041d565b506080820151816004015560a08201518160050160006101000a81548173ffffffffffffffffffffffffffffffffffffffff021916908373ffffffffffffffffffffffffffffffffffffffff16021790555090505050505050565b8060016000848152602001908152602001600020600401600082825401925050819055505050565b828054600181600116156101000203166002900490600052602060002090601f016020900481019282601f1061045e57805160ff191683800117855561048c565b8280016001018555821561048c579182015b8281111561048b578251825591602001919060010190610470565b5b509050610499919061049d565b5090565b6104bf91905b808211156104bb5760008160009055506001016104a3565b5090565b9056fea165627a7a7230582044af7ba3b7186e48125103ba6927d96a2cb0268412924ba6fe167e075c058e4b0029",
  "source": "// SPDX-License-Identifier: MIT\npragma solidity >=0.4.21 <0.7.0;\n\ncontract Soligram {\n \nuint public imageCount=0;\n\nstruct Image{\n    uint imageNumber;\n    string name;\n    string imageHash;\n    string caption;\n    uint totalDonation;\n    address payable mainAccount;\n}\n\nmapping(uint=>Image) images;\n\nfunction createNew  (string memory _caption,string memory _name,string memory _imageHash,address payable _mainAccount) public payable{\n imageCount++;\n images[imageCount]=Image(imageCount,_name,_imageHash,_caption,0,_mainAccount);\n} \n\nfunction addDonation (uint _imageNumber,uint _donatedAmount) public payable{\n images[_imageNumber].totalDonation+=_donatedAmount;\n}\n\n}\n",
  "sourcePath": "/home/deucaleon19/Documents/projects/SOLIGRAM/contracts/Soligram.sol",
  "compiler": {
    "name": "solc",
    "version": "0.5.0+commit.1d4f565a.Emscripten.clang"
  },
  "schemaVersion": "3.0.1",
  "updatedAt": "2021-11-12T22:19:42.729Z",
  "devdoc": {
    "methods": {}
  },
  "userdoc": {
    "methods": {}
  }
}