{
  "contractName": "Soligram",
  "abi": [
    {
      "constant": true,
      "inputs": [
        {
          "name": "",
          "type": "uint256"
        }
      ],
      "name": "images",
      "outputs": [
        {
          "name": "imageNumber",
          "type": "uint256"
        },
        {
          "name": "name",
          "type": "string"
        },
        {
          "name": "imageHash",
          "type": "string"
        },
        {
          "name": "caption",
          "type": "string"
        },
        {
          "name": "buyingPrice",
          "type": "uint256"
        },
        {
          "name": "mainAccount",
          "type": "address"
        }
      ],
      "payable": false,
      "stateMutability": "view",
      "type": "function",
      "signature": "0x84856482"
    },
    {
      "constant": true,
      "inputs": [],
      "name": "imageCount",
      "outputs": [
        {
          "name": "",
          "type": "uint256"
        }
      ],
      "payable": false,
      "stateMutability": "view",
      "type": "function",
      "signature": "0x92053b63"
    },
    {
      "constant": false,
      "inputs": [
        {
          "name": "_price",
          "type": "uint256"
        },
        {
          "name": "_caption",
          "type": "string"
        },
        {
          "name": "_name",
          "type": "string"
        },
        {
          "name": "_imageHash",
          "type": "string"
        },
        {
          "name": "_mainAccount",
          "type": "address"
        }
      ],
      "name": "createNew",
      "outputs": [],
      "payable": true,
      "stateMutability": "payable",
      "type": "function",
      "signature": "0xbe7cbc53"
    }
  ],
  "bytecode": "0x60806040526000805534801561001457600080fd5b50610889806100246000396000f3fe608060405260043610610057576000357c0100000000000000000000000000000000000000000000000000000000900463ffffffff168063848564821461005c57806392053b6314610229578063be7cbc5314610254575b600080fd5b34801561006857600080fd5b506100956004803603602081101561007f57600080fd5b8101908080359060200190929190505050610467565b604051808781526020018060200180602001806020018681526020018573ffffffffffffffffffffffffffffffffffffffff1673ffffffffffffffffffffffffffffffffffffffff168152602001848103845289818151815260200191508051906020019080838360005b8381101561011b578082015181840152602081019050610100565b50505050905090810190601f1680156101485780820380516001836020036101000a031916815260200191505b50848103835288818151815260200191508051906020019080838360005b83811015610181578082015181840152602081019050610166565b50505050905090810190601f1680156101ae5780820380516001836020036101000a031916815260200191505b50848103825287818151815260200191508051906020019080838360005b838110156101e75780820151818401526020810190506101cc565b50505050905090810190601f1680156102145780820380516001836020036101000a031916815260200191505b50995050505050505050505060405180910390f35b34801561023557600080fd5b5061023e61068b565b6040518082815260200191505060405180910390f35b610465600480360360a081101561026a57600080fd5b81019080803590602001909291908035906020019064010000000081111561029157600080fd5b8201836020820111156102a357600080fd5b803590602001918460018302840111640100000000831117156102c557600080fd5b91908080601f016020809104026020016040519081016040528093929190818152602001838380828437600081840152601f19601f8201169050808301925050505050505091929192908035906020019064010000000081111561032857600080fd5b82018360208201111561033a57600080fd5b8035906020019184600183028401116401000000008311171561035c57600080fd5b91908080601f016020809104026020016040519081016040528093929190818152602001838380828437600081840152601f19601f820116905080830192505050505050509192919290803590602001906401000000008111156103bf57600080fd5b8201836020820111156103d157600080fd5b803590602001918460018302840111640100000000831117156103f357600080fd5b91908080601f016020809104026020016040519081016040528093929190818152602001838380828437600081840152601f19601f820116905080830192505050505050509192919290803573ffffffffffffffffffffffffffffffffffffffff169060200190929190505050610691565b005b6001602052806000526040600020600091509050806000015490806001018054600181600116156101000203166002900480601f0160208091040260200160405190810160405280929190818152602001828054600181600116156101000203166002900480156105195780601f106104ee57610100808354040283529160200191610519565b820191906000526020600020905b8154815290600101906020018083116104fc57829003601f168201915b505050505090806002018054600181600116156101000203166002900480601f0160208091040260200160405190810160405280929190818152602001828054600181600116156101000203166002900480156105b75780601f1061058c576101008083540402835291602001916105b7565b820191906000526020600020905b81548152906001019060200180831161059a57829003601f168201915b505050505090806003018054600181600116156101000203166002900480601f0160208091040260200160405190810160405280929190818152602001828054600181600116156101000203166002900480156106555780601f1061062a57610100808354040283529160200191610655565b820191906000526020600020905b81548152906001019060200180831161063857829003601f168201915b5050505050908060040154908060050160009054906101000a900473ffffffffffffffffffffffffffffffffffffffff16905086565b60005481565b600080815480929190600101919050555060c06040519081016040528060005481526020018481526020018381526020018581526020018681526020018273ffffffffffffffffffffffffffffffffffffffff1681525060016000805481526020019081526020016000206000820151816000015560208201518160010190805190602001906107229291906107b8565b50604082015181600201908051906020019061073f9291906107b8565b50606082015181600301908051906020019061075c9291906107b8565b506080820151816004015560a08201518160050160006101000a81548173ffffffffffffffffffffffffffffffffffffffff021916908373ffffffffffffffffffffffffffffffffffffffff1602179055509050505050505050565b828054600181600116156101000203166002900490600052602060002090601f016020900481019282601f106107f957805160ff1916838001178555610827565b82800160010185558215610827579182015b8281111561082657825182559160200191906001019061080b565b5b5090506108349190610838565b5090565b61085a91905b8082111561085657600081600090555060010161083e565b5090565b9056fea165627a7a72305820845136cff162cd900cc6a502705bc26d7912b551e189d90f362e0b1467fb4e480029",
  "source": "// SPDX-License-Identifier: MIT\npragma solidity >=0.4.21 <0.7.0;\n\ncontract Soligram {\n \nuint public imageCount=0;\n\nstruct Image{\n    uint imageNumber;\n    string name;\n    string imageHash;\n    string caption;\n    uint buyingPrice;\n    address payable mainAccount;\n}\n\nmapping(uint=>Image)public images;\n\nfunction createNew  (uint _price,string memory _caption,string memory _name,string memory _imageHash,address payable _mainAccount) public payable{\n imageCount++;\n images[imageCount]=Image(imageCount,_name,_imageHash,_caption,_price,_mainAccount);\n} \n\n// function addDonation (uint _imageNumber,uint _donatedAmount) public payable{\n//  images[_imageNumber].totalDonation+=_donatedAmount;\n// }\n\n}\n",
  "sourcePath": "/home/deucaleon19/Documents/projects/SOLIGRAM/contracts/Soligram.sol",
  "compiler": {
    "name": "solc",
    "version": "0.5.0+commit.1d4f565a.Emscripten.clang"
  },
  "schemaVersion": "3.0.1",
  "updatedAt": "2021-11-13T08:38:05.395Z",
  "devdoc": {
    "methods": {}
  },
  "userdoc": {
    "methods": {}
  }
}